{
  "contractName": "Adoption",
  "abi": [
    {
      "constant": true,
      "inputs": [
        {
          "internalType": "uint256",
          "name": "",
          "type": "uint256"
        }
      ],
      "name": "adopters",
      "outputs": [
        {
          "internalType": "address",
          "name": "",
          "type": "address"
        }
      ],
      "payable": false,
      "stateMutability": "view",
      "type": "function"
    },
    {
      "constant": false,
      "inputs": [
        {
          "internalType": "uint256",
          "name": "petId",
          "type": "uint256"
        }
      ],
      "name": "adopt",
      "outputs": [
        {
          "internalType": "uint256",
          "name": "",
          "type": "uint256"
        }
      ],
      "payable": false,
      "stateMutability": "nonpayable",
      "type": "function"
    },
    {
      "constant": true,
      "inputs": [],
      "name": "getAdopters",
      "outputs": [
        {
          "internalType": "address[16]",
          "name": "",
          "type": "address[16]"
        }
      ],
      "payable": false,
      "stateMutability": "view",
      "type": "function"
    }
  ],
  "bytecode": "0x608060405234801561001057600080fd5b50610322806100206000396000f3fe608060405234801561001057600080fd5b50600436106100415760003560e01c80633de4eb171461004657806343ae80d31461008c5780638588b2c5146100fa575b600080fd5b61004e61013c565b6040518082601060200280838360005b8381101561007957808201518184015260208101905061005e565b5050505090500191505060405180910390f35b6100b8600480360360208110156100a257600080fd5b81019080803590602001909291905050506101bd565b604051808273ffffffffffffffffffffffffffffffffffffffff1673ffffffffffffffffffffffffffffffffffffffff16815260200191505060405180910390f35b6101266004803603602081101561011057600080fd5b81019080803590602001909291905050506101f0565b6040518082815260200191505060405180910390f35b6101446102ca565b60006010806020026040519081016040528092919082601080156101b3576020028201915b8160009054906101000a900473ffffffffffffffffffffffffffffffffffffffff1673ffffffffffffffffffffffffffffffffffffffff1681526020019060010190808311610169575b5050505050905090565b600081601081106101ca57fe5b016000915054906101000a900473ffffffffffffffffffffffffffffffffffffffff1681565b60008082101580156102035750600f8211155b610275576040517f08c379a00000000000000000000000000000000000000000000000000000000081526004018080602001828103825260138152602001807f5065742d4944206f7574206f662072616e67650000000000000000000000000081525060200191505060405180910390fd5b336000836010811061028357fe5b0160006101000a81548173ffffffffffffffffffffffffffffffffffffffff021916908373ffffffffffffffffffffffffffffffffffffffff160217905550819050919050565b60405180610200016040528060109060208202803883398082019150509050509056fea265627a7a72315820571424e8a6f65b21480c90ba51fd041c6efce1032ec173563ecd423bb13d2ded64736f6c63430005100032",
  "source": "pragma solidity 0.5.16;\r\n\r\ncontract Adoption {\r\n    address[16] public adopters;\r\n\r\n    function adopt(uint petId) public returns (uint) {\r\n        require(petId >= 0 && petId <= 15, \"Pet-ID out of range\");\r\n        adopters[petId] = msg.sender;\r\n        return petId;\r\n    }\r\n\r\n    function getAdopters() public view returns (address[16] memory) {\r\n        return adopters;\r\n    }\r\n}\r\n",
  "sourcePath": "C:/Users/benja/Desktop/petshop/contracts/Adoption.sol",
  "compiler": {
    "name": "solc",
    "version": "0.5.16+commit.9c3226ce.Emscripten.clang"
  },
  "schemaVersion": "3.0.22",
  "updatedAt": "2021-04-15T09:11:39.146Z",
  "networkType": "ethereum",
  "devdoc": {
    "methods": {}
  },
  "userdoc": {
    "methods": {}
  }
}